{
  "contractName": "ZombieAttack",
  "abi": [
    {
      "anonymous": false,
      "inputs": [
        {
          "indexed": false,
          "internalType": "uint256",
          "name": "zombieId",
          "type": "uint256"
        }
      ],
      "name": "NewLevel",
      "type": "event"
    },
    {
      "anonymous": false,
      "inputs": [
        {
          "indexed": false,
          "internalType": "uint256",
          "name": "zombieId",
          "type": "uint256"
        },
        {
          "indexed": false,
          "internalType": "string",
          "name": "name",
          "type": "string"
        },
        {
          "indexed": false,
          "internalType": "uint256",
          "name": "dna",
          "type": "uint256"
        }
      ],
      "name": "NewZombie",
      "type": "event"
    },
    {
      "anonymous": false,
      "inputs": [
        {
          "indexed": true,
          "internalType": "address",
          "name": "previousOwner",
          "type": "address"
        },
        {
          "indexed": true,
          "internalType": "address",
          "name": "newOwner",
          "type": "address"
        }
      ],
      "name": "OwnershipTransferred",
      "type": "event"
    },
    {
      "constant": false,
      "inputs": [
        {
          "internalType": "uint256",
          "name": "_zombieId",
          "type": "uint256"
        },
        {
          "internalType": "uint256",
          "name": "_newDna",
          "type": "uint256"
        }
      ],
      "name": "changeDna",
      "outputs": [],
      "payable": false,
      "stateMutability": "nonpayable",
      "type": "function"
    },
    {
      "constant": false,
      "inputs": [
        {
          "internalType": "uint256",
          "name": "_zombieId",
          "type": "uint256"
        },
        {
          "internalType": "string",
          "name": "_newName",
          "type": "string"
        }
      ],
      "name": "changeName",
      "outputs": [],
      "payable": false,
      "stateMutability": "nonpayable",
      "type": "function"
    },
    {
      "constant": false,
      "inputs": [
        {
          "internalType": "string",
          "name": "_name",
          "type": "string"
        }
      ],
      "name": "createRandomZombie",
      "outputs": [],
      "payable": false,
      "stateMutability": "nonpayable",
      "type": "function"
    },
    {
      "constant": false,
      "inputs": [
        {
          "internalType": "uint256",
          "name": "_zombieId",
          "type": "uint256"
        },
        {
          "internalType": "uint256",
          "name": "_kittyId",
          "type": "uint256"
        }
      ],
      "name": "feedOnKitty",
      "outputs": [],
      "payable": false,
      "stateMutability": "nonpayable",
      "type": "function"
    },
    {
      "constant": true,
      "inputs": [
        {
          "internalType": "address",
          "name": "_owner",
          "type": "address"
        }
      ],
      "name": "getZombiesByOwner",
      "outputs": [
        {
          "internalType": "uint256[]",
          "name": "",
          "type": "uint256[]"
        }
      ],
      "payable": false,
      "stateMutability": "view",
      "type": "function"
    },
    {
      "constant": true,
      "inputs": [],
      "name": "isOwner",
      "outputs": [
        {
          "internalType": "bool",
          "name": "",
          "type": "bool"
        }
      ],
      "payable": false,
      "stateMutability": "view",
      "type": "function"
    },
    {
      "constant": false,
      "inputs": [
        {
          "internalType": "uint256",
          "name": "_zombieId",
          "type": "uint256"
        }
      ],
      "name": "levelUp",
      "outputs": [],
      "payable": true,
      "stateMutability": "payable",
      "type": "function"
    },
    {
      "constant": true,
      "inputs": [],
      "name": "owner",
      "outputs": [
        {
          "internalType": "address",
          "name": "",
          "type": "address"
        }
      ],
      "payable": false,
      "stateMutability": "view",
      "type": "function"
    },
    {
      "constant": true,
      "inputs": [
        {
          "internalType": "address",
          "name": "",
          "type": "address"
        }
      ],
      "name": "ownerZombieCount",
      "outputs": [
        {
          "internalType": "uint256",
          "name": "",
          "type": "uint256"
        }
      ],
      "payable": false,
      "stateMutability": "view",
      "type": "function"
    },
    {
      "constant": false,
      "inputs": [],
      "name": "renounceOwnership",
      "outputs": [],
      "payable": false,
      "stateMutability": "nonpayable",
      "type": "function"
    },
    {
      "constant": false,
      "inputs": [
        {
          "internalType": "address",
          "name": "_address",
          "type": "address"
        }
      ],
      "name": "setKittyContractAddress",
      "outputs": [],
      "payable": false,
      "stateMutability": "nonpayable",
      "type": "function"
    },
    {
      "constant": false,
      "inputs": [
        {
          "internalType": "uint256",
          "name": "_fee",
          "type": "uint256"
        }
      ],
      "name": "setLevelUpFee",
      "outputs": [],
      "payable": false,
      "stateMutability": "nonpayable",
      "type": "function"
    },
    {
      "constant": false,
      "inputs": [
        {
          "internalType": "address",
          "name": "newOwner",
          "type": "address"
        }
      ],
      "name": "transferOwnership",
      "outputs": [],
      "payable": false,
      "stateMutability": "nonpayable",
      "type": "function"
    },
    {
      "constant": false,
      "inputs": [],
      "name": "withdraw",
      "outputs": [],
      "payable": false,
      "stateMutability": "nonpayable",
      "type": "function"
    },
    {
      "constant": true,
      "inputs": [
        {
          "internalType": "uint256",
          "name": "",
          "type": "uint256"
        }
      ],
      "name": "zombieToOwner",
      "outputs": [
        {
          "internalType": "address",
          "name": "",
          "type": "address"
        }
      ],
      "payable": false,
      "stateMutability": "view",
      "type": "function"
    },
    {
      "constant": true,
      "inputs": [
        {
          "internalType": "uint256",
          "name": "",
          "type": "uint256"
        }
      ],
      "name": "zombies",
      "outputs": [
        {
          "internalType": "string",
          "name": "name",
          "type": "string"
        },
        {
          "internalType": "uint256",
          "name": "dna",
          "type": "uint256"
        },
        {
          "internalType": "uint32",
          "name": "level",
          "type": "uint32"
        },
        {
          "internalType": "uint32",
          "name": "readyTime",
          "type": "uint32"
        },
        {
          "internalType": "uint16",
          "name": "winCount",
          "type": "uint16"
        },
        {
          "internalType": "uint16",
          "name": "lossCount",
          "type": "uint16"
        }
      ],
      "payable": false,
      "stateMutability": "view",
      "type": "function"
    },
    {
      "constant": false,
      "inputs": [
        {
          "internalType": "uint256",
          "name": "_zombieId",
          "type": "uint256"
        },
        {
          "internalType": "uint256",
          "name": "_targetId",
          "type": "uint256"
        }
      ],
      "name": "attack",
      "outputs": [],
      "payable": false,
      "stateMutability": "nonpayable",
      "type": "function"
    }
  ],
  "bytecode": "0x60806040526010600155600154600a0a6002556201518060035566038d7ea4c6800060085560006009556046600a55336000806101000a81548173ffffffffffffffffffffffffffffffffffffffff021916908373ffffffffffffffffffffffffffffffffffffffff1602179055506000809054906101000a900473ffffffffffffffffffffffffffffffffffffffff1673ffffffffffffffffffffffffffffffffffffffff16600073ffffffffffffffffffffffffffffffffffffffff167f8be0079c531659141344cd1fd0a4f28419497f9722a3daafe3b4186f6b6457e060405160405180910390a3611c46806100f96000396000f3fe6080604052600436106100fe5760003560e01c80635faf2880116100955780638f32d59b116100645780638f32d59b146105de578063c39cbef11461060d578063ccf670f81461069d578063e1fa7638146106d8578063f2fde38b1461071d576100fe565b80635faf288014610463578063715018a6146104a85780637bff0a01146104bf5780638da5cb5b14610587576100fe565b80633ccfd60b116100d15780633ccfd60b146102da5780634412e104146102f1578063528b7b8f146103975780635f4623f114610412576100fe565b806301afd7e1146101035780630ce90ec21461016857806317a7f4cc146101965780632052465e146101db575b600080fd5b34801561010f57600080fd5b506101526004803603602081101561012657600080fd5b81019080803573ffffffffffffffffffffffffffffffffffffffff16906020019092919050505061076e565b6040518082815260200191505060405180910390f35b6101946004803603602081101561017e57600080fd5b8101908080359060200190929190505050610786565b005b3480156101a257600080fd5b506101d9600480360360408110156101b957600080fd5b810190808035906020019092919080359060200190929190505050610852565b005b3480156101e757600080fd5b50610214600480360360208110156101fe57600080fd5b81019080803590602001909291905050506109dd565b60405180806020018781526020018663ffffffff1663ffffffff1681526020018563ffffffff1663ffffffff1681526020018461ffff1661ffff1681526020018361ffff1661ffff168152602001828103825288818151815260200191508051906020019080838360005b8381101561029a57808201518184015260208101905061027f565b50505050905090810190601f1680156102c75780820380516001836020036101000a031916815260200191505b5097505050505050505060405180910390f35b3480156102e657600080fd5b506102ef610afa565b005b3480156102fd57600080fd5b506103406004803603602081101561031457600080fd5b81019080803573ffffffffffffffffffffffffffffffffffffffff169060200190929190505050610b61565b6040518080602001828103825283818151815260200191508051906020019060200280838360005b83811015610383578082015181840152602081019050610368565b505050509050019250505060405180910390f35b3480156103a357600080fd5b506103d0600480360360208110156103ba57600080fd5b8101908080359060200190929190505050610c8e565b604051808273ffffffffffffffffffffffffffffffffffffffff1673ffffffffffffffffffffffffffffffffffffffff16815260200191505060405180910390f35b34801561041e57600080fd5b506104616004803603602081101561043557600080fd5b81019080803573ffffffffffffffffffffffffffffffffffffffff169060200190929190505050610cc1565b005b34801561046f57600080fd5b506104a66004803603604081101561048657600080fd5b810190808035906020019092919080359060200190929190505050610d16565b005b3480156104b457600080fd5b506104bd610df0565b005b3480156104cb57600080fd5b50610585600480360360208110156104e257600080fd5b81019080803590602001906401000000008111156104ff57600080fd5b82018360208201111561051157600080fd5b8035906020019184600183028401116401000000008311171561053357600080fd5b91908080601f016020809104026020016040519081016040528093929190818152602001838380828437600081840152601f19601f820116905080830192505050505050509192919290505050610ec0565b005b34801561059357600080fd5b5061059c610f36565b604051808273ffffffffffffffffffffffffffffffffffffffff1673ffffffffffffffffffffffffffffffffffffffff16815260200191505060405180910390f35b3480156105ea57600080fd5b506105f3610f5f565b604051808215151515815260200191505060405180910390f35b34801561061957600080fd5b5061069b6004803603604081101561063057600080fd5b81019080803590602001909291908035906020019064010000000081111561065757600080fd5b82018360208201111561066957600080fd5b8035906020019184600183028401116401000000008311171561068b57600080fd5b9091929391929390505050610fb6565b005b3480156106a957600080fd5b506106d6600480360360208110156106c057600080fd5b810190808035906020019092919050505061109c565b005b3480156106e457600080fd5b5061071b600480360360408110156106fb57600080fd5b8101908080359060200190929190803590602001909291905050506110b7565b005b34801561072957600080fd5b5061076c6004803603602081101561074057600080fd5b81019080803573ffffffffffffffffffffffffffffffffffffffff169060200190929190505050611343565b005b60066020528060005260406000206000915090505481565b600854341461079457600080fd5b6107dc6001600483815481106107a657fe5b906000526020600020906003020160020160009054906101000a900463ffffffff1663ffffffff1661136090919063ffffffff16565b600482815481106107e957fe5b906000526020600020906003020160020160006101000a81548163ffffffff021916908363ffffffff1602179055507f2d74ce9beb86122fd2dfce6bf43dac68c884f8e600ce2dea86f9aba6cdb0069c816040518082815260200191505060405180910390a150565b6000600760009054906101000a900473ffffffffffffffffffffffffffffffffffffffff1673ffffffffffffffffffffffffffffffffffffffff1663e98b7f4d836040518263ffffffff1660e01b8152600401808281526020019150506101406040518083038186803b1580156108c857600080fd5b505afa1580156108dc573d6000803e3d6000fd5b505050506040513d6101408110156108f357600080fd5b8101908080519060200190929190805190602001909291908051906020019092919080519060200190929190805190602001909291908051906020019092919080519060200190929190805190602001909291908051906020019092919080519060200190929190505050909192939495969798509091929394959697509091929394959650909192939495509091929394509091929350909192509091509050809150506109d883826040518060400160405280600581526020017f6b69747479000000000000000000000000000000000000000000000000000000815250611388565b505050565b600481815481106109ea57fe5b9060005260206000209060030201600091509050806000018054600181600116156101000203166002900480601f016020809104026020016040519081016040528092919081815260200182805460018160011615610100020316600290048015610a965780601f10610a6b57610100808354040283529160200191610a96565b820191906000526020600020905b815481529060010190602001808311610a7957829003601f168201915b5050505050908060010154908060020160009054906101000a900463ffffffff16908060020160049054906101000a900463ffffffff16908060020160089054906101000a900461ffff169080600201600a9054906101000a900461ffff16905086565b610b02610f5f565b610b0b57600080fd5b6000610b15610f36565b90508073ffffffffffffffffffffffffffffffffffffffff166108fc479081150290604051600060405180830381858888f19350505050158015610b5d573d6000803e3d6000fd5b5050565b606080600660008473ffffffffffffffffffffffffffffffffffffffff1673ffffffffffffffffffffffffffffffffffffffff16815260200190815260200160002054604051908082528060200260200182016040528015610bd25781602001602082028038833980820191505090505b509050600080905060008090505b600480549050811015610c83578473ffffffffffffffffffffffffffffffffffffffff166005600083815260200190815260200160002060009054906101000a900473ffffffffffffffffffffffffffffffffffffffff1673ffffffffffffffffffffffffffffffffffffffff161415610c765780838381518110610c6157fe5b60200260200101818152505081806001019250505b8080600101915050610be0565b508192505050919050565b60056020528060005260406000206000915054906101000a900473ffffffffffffffffffffffffffffffffffffffff1681565b610cc9610f5f565b610cd257600080fd5b80600760006101000a81548173ffffffffffffffffffffffffffffffffffffffff021916908373ffffffffffffffffffffffffffffffffffffffff16021790555050565b6014828160048281548110610d2757fe5b906000526020600020906003020160020160009054906101000a900463ffffffff1663ffffffff161015610d5a57600080fd5b836005600082815260200190815260200160002060009054906101000a900473ffffffffffffffffffffffffffffffffffffffff1673ffffffffffffffffffffffffffffffffffffffff163373ffffffffffffffffffffffffffffffffffffffff1614610dc657600080fd5b8360048681548110610dd457fe5b9060005260206000209060030201600101819055505050505050565b610df8610f5f565b610e0157600080fd5b600073ffffffffffffffffffffffffffffffffffffffff166000809054906101000a900473ffffffffffffffffffffffffffffffffffffffff1673ffffffffffffffffffffffffffffffffffffffff167f8be0079c531659141344cd1fd0a4f28419497f9722a3daafe3b4186f6b6457e060405160405180910390a360008060006101000a81548173ffffffffffffffffffffffffffffffffffffffff021916908373ffffffffffffffffffffffffffffffffffffffff160217905550565b6000600660003373ffffffffffffffffffffffffffffffffffffffff1673ffffffffffffffffffffffffffffffffffffffff1681526020019081526020016000205414610f0c57600080fd5b6000610f178261156a565b905060648181610f2357fe5b0681039050610f3282826115f8565b5050565b60008060009054906101000a900473ffffffffffffffffffffffffffffffffffffffff16905090565b60008060009054906101000a900473ffffffffffffffffffffffffffffffffffffffff1673ffffffffffffffffffffffffffffffffffffffff163373ffffffffffffffffffffffffffffffffffffffff1614905090565b6002838160048281548110610fc757fe5b906000526020600020906003020160020160009054906101000a900463ffffffff1663ffffffff161015610ffa57600080fd5b846005600082815260200190815260200160002060009054906101000a900473ffffffffffffffffffffffffffffffffffffffff1673ffffffffffffffffffffffffffffffffffffffff163373ffffffffffffffffffffffffffffffffffffffff161461106657600080fd5b84846004888154811061107557fe5b90600052602060002090600302016000019190611093929190611aec565b50505050505050565b6110a4610f5f565b6110ad57600080fd5b8060088190555050565b816005600082815260200190815260200160002060009054906101000a900473ffffffffffffffffffffffffffffffffffffffff1673ffffffffffffffffffffffffffffffffffffffff163373ffffffffffffffffffffffffffffffffffffffff161461112357600080fd5b60006004848154811061113257fe5b9060005260206000209060030201905060006004848154811061115157fe5b90600052602060002090600302019050600061116d60646118ca565b9050600a5481116112a1576111a260018460020160089054906101000a900461ffff1661ffff1661196390919063ffffffff16565b8360020160086101000a81548161ffff021916908361ffff1602179055506111ee60018460020160009054906101000a900463ffffffff1663ffffffff1661136090919063ffffffff16565b8360020160006101000a81548163ffffffff021916908363ffffffff16021790555061123a600183600201600a9054906101000a900461ffff1661ffff1661196390919063ffffffff16565b82600201600a6101000a81548161ffff021916908361ffff16021790555061129c8683600101546040518060400160405280600681526020017f7a6f6d6269650000000000000000000000000000000000000000000000000000815250611388565b61133b565b6112cb600184600201600a9054906101000a900461ffff1661ffff1661196390919063ffffffff16565b83600201600a6101000a81548161ffff021916908361ffff16021790555061131360018360020160089054906101000a900461ffff1661ffff1661196390919063ffffffff16565b8260020160086101000a81548161ffff021916908361ffff16021790555061133a83611987565b5b505050505050565b61134b610f5f565b61135457600080fd5b61135d816119b1565b50565b60008082840190508363ffffffff168163ffffffff16101561137e57fe5b8091505092915050565b826005600082815260200190815260200160002060009054906101000a900473ffffffffffffffffffffffffffffffffffffffff1673ffffffffffffffffffffffffffffffffffffffff163373ffffffffffffffffffffffffffffffffffffffff16146113f457600080fd5b60006004858154811061140357fe5b9060005260206000209060030201905061141c81611aa9565b61142557600080fd5b600254848161143057fe5b06935060006002858360010154018161144557fe5b04905060405160200180807f6b69747479000000000000000000000000000000000000000000000000000000815250600501905060405160208183030381529060405280519060200120846040516020018082805190602001908083835b602083106114c657805182526020820191506020810190506020830392506114a3565b6001836020036101000a03801982511681845116808217855250505050505090500191505060405160208183030381529060405280519060200120141561151a5760636064828161151357fe5b0682030190505b6115596040518060400160405280600681526020017f4e6f4e616d650000000000000000000000000000000000000000000000000000815250826115f8565b61156282611987565b505050505050565b600080826040516020018082805190602001908083835b602083106115a45780518252602082019150602081019050602083039250611581565b6001836020036101000a0380198251168184511680821785525050505050509050019150506040516020818303038152906040528051906020012060001c905060025481816115ef57fe5b06915050919050565b6000600160046040518060c00160405280868152602001858152602001600163ffffffff168152602001600354420163ffffffff168152602001600061ffff168152602001600061ffff1681525090806001815401808255809150509060018203906000526020600020906003020160009091929091909150600082015181600001908051906020019061168d929190611b6c565b506020820151816001015560408201518160020160006101000a81548163ffffffff021916908363ffffffff16021790555060608201518160020160046101000a81548163ffffffff021916908363ffffffff16021790555060808201518160020160086101000a81548161ffff021916908361ffff16021790555060a082015181600201600a6101000a81548161ffff021916908361ffff1602179055505050039050336005600083815260200190815260200160002060006101000a81548173ffffffffffffffffffffffffffffffffffffffff021916908373ffffffffffffffffffffffffffffffffffffffff1602179055506117d66001600660003373ffffffffffffffffffffffffffffffffffffffff1673ffffffffffffffffffffffffffffffffffffffff16815260200190815260200160002054611ad090919063ffffffff16565b600660003373ffffffffffffffffffffffffffffffffffffffff1673ffffffffffffffffffffffffffffffffffffffff168152602001908152602001600020819055507f88f026aacbbecc90c18411df4b1185fd8d9be2470f1962f192bf84a27d0704b78184846040518084815260200180602001838152602001828103825284818151815260200191508051906020019080838360005b8381101561188957808201518184015260208101905061186e565b50505050905090810190601f1680156118b65780820380516001836020036101000a031916815260200191505b5094505050505060405180910390a1505050565b60006118e26001600954611ad090919063ffffffff16565b600981905550814233600954604051602001808481526020018373ffffffffffffffffffffffffffffffffffffffff1673ffffffffffffffffffffffffffffffffffffffff1660601b815260140182815260200193505050506040516020818303038152906040528051906020012060001c8161195b57fe5b069050919050565b60008082840190508361ffff168161ffff16101561197d57fe5b8091505092915050565b60035442018160020160046101000a81548163ffffffff021916908363ffffffff16021790555050565b600073ffffffffffffffffffffffffffffffffffffffff168173ffffffffffffffffffffffffffffffffffffffff1614156119eb57600080fd5b8073ffffffffffffffffffffffffffffffffffffffff166000809054906101000a900473ffffffffffffffffffffffffffffffffffffffff1673ffffffffffffffffffffffffffffffffffffffff167f8be0079c531659141344cd1fd0a4f28419497f9722a3daafe3b4186f6b6457e060405160405180910390a3806000806101000a81548173ffffffffffffffffffffffffffffffffffffffff021916908373ffffffffffffffffffffffffffffffffffffffff16021790555050565b6000428260020160049054906101000a900463ffffffff1663ffffffff1611159050919050565b600080828401905083811015611ae257fe5b8091505092915050565b828054600181600116156101000203166002900490600052602060002090601f016020900481019282601f10611b2d57803560ff1916838001178555611b5b565b82800160010185558215611b5b579182015b82811115611b5a578235825591602001919060010190611b3f565b5b509050611b689190611bec565b5090565b828054600181600116156101000203166002900490600052602060002090601f016020900481019282601f10611bad57805160ff1916838001178555611bdb565b82800160010185558215611bdb579182015b82811115611bda578251825591602001919060010190611bbf565b5b509050611be89190611bec565b5090565b611c0e91905b80821115611c0a576000816000905550600101611bf2565b5090565b9056fea265627a7a723158207b10615227b3dfeb4aed8d61635a9dee45991a607c32fee67931dce8c7d0a11f64736f6c63430005100032",
  "source": "pragma solidity ^0.5.0;\n\nimport \"./ZombieHelper.sol\";\n\ncontract ZombieAttack is ZombieHelper {\n  uint randNonce = 0;\n  uint attackVictoryProbability = 70;\n\n  function randMod(uint _modulus) internal returns(uint) {\n    randNonce = randNonce.add(1);\n    return uint(keccak256(abi.encodePacked(now, msg.sender, randNonce))) % _modulus;\n  }\n\n  function attack(uint _zombieId, uint _targetId) external onlyOwnerOf(_zombieId) {\n    Zombie storage myZombie = zombies[_zombieId];\n    Zombie storage enemyZombie = zombies[_targetId];\n    uint rand = randMod(100);\n    if (rand <= attackVictoryProbability) {\n      myZombie.winCount = myZombie.winCount.add(1);\n      myZombie.level = myZombie.level.add(1);\n      enemyZombie.lossCount = enemyZombie.lossCount.add(1);\n      feedAndMultiply(_zombieId, enemyZombie.dna, \"zombie\");\n    } else {\n      myZombie.lossCount = myZombie.lossCount.add(1);\n      enemyZombie.winCount = enemyZombie.winCount.add(1);\n      _triggerCooldown(myZombie);\n    }\n  }\n}",
  "sourcePath": "/Users/macbookpro/CryptoZombies/contracts/ZombieAttack.sol",
  "compiler": {
    "name": "solc",
    "version": "0.5.16+commit.9c3226ce.Emscripten.clang"
  },
  "schemaVersion": "3.0.23",
  "updatedAt": "2020-02-26T09:21:22.404Z",
  "devdoc": {
    "methods": {
      "isOwner()": {
        "return": "true if `msg.sender` is the owner of the contract."
      },
      "owner()": {
        "return": "the address of the owner."
      },
      "renounceOwnership()": {
        "details": "Allows the current owner to relinquish control of the contract."
      },
      "transferOwnership(address)": {
        "details": "Allows the current owner to transfer control of the contract to a newOwner.",
        "params": {
          "newOwner": "The address to transfer ownership to."
        }
      }
    }
  },
  "userdoc": {
    "methods": {
      "renounceOwnership()": {
        "notice": "Renouncing to ownership will leave the contract without an owner. It will not be possible to call the functions with the `onlyOwner` modifier anymore."
      }
    }
  }
}